{
  "_format": "hh3-artifact-1",
  "contractName": "Counter",
  "sourceName": "contracts/Counter.sol",
  "abi": [
    {
      "anonymous": false,
      "inputs": [
        {
          "indexed": false,
          "internalType": "uint256",
          "name": "by",
          "type": "uint256"
        }
      ],
      "name": "Increment",
      "type": "event"
    },
    {
      "inputs": [],
      "name": "inc",
      "outputs": [],
      "stateMutability": "nonpayable",
      "type": "function"
    },
    {
      "inputs": [
        {
          "internalType": "uint256",
          "name": "by1",
          "type": "uint256"
        }
      ],
      "name": "incBy",
      "outputs": [],
      "stateMutability": "nonpayable",
      "type": "function"
    },
    {
      "inputs": [
        {
          "internalType": "uint256",
          "name": "by1",
          "type": "uint256"
        }
      ],
      "name": "incBy111",
      "outputs": [],
      "stateMutability": "nonpayable",
      "type": "function"
    },
    {
      "inputs": [],
      "name": "x",
      "outputs": [
        {
          "internalType": "uint256",
          "name": "",
          "type": "uint256"
        }
      ],
      "stateMutability": "view",
      "type": "function"
    }
  ],
  "bytecode": "0x6080604052348015600e575f5ffd5b506102188061001c5f395ff3fe608060405234801561000f575f5ffd5b506004361061004a575f3560e01c80630c55699c1461004e578063371303c01461006857806370119d0614610072578063d22cb41614610072575b5f5ffd5b6100565f5481565b60405190815260200160405180910390f35b610070610085565b005b610070610080366004610186565b6100ce565b5f80549080610093836101b1565b9091555050604051600181527f51af157c2eee40f68107a47a49c32fbbeb0a3c9e5cd37aa56e88e6be92368a819060200160405180910390a1565b5f811161013b5760405162461bcd60e51b815260206004820152603160248201527f696e634279313a203231323231696e6372656d656e742073686f756c6420626560448201527020706f733131313169746976653131313160781b606482015260840160405180910390fd5b805f5f82825461014b91906101c9565b90915550506040518181527f51af157c2eee40f68107a47a49c32fbbeb0a3c9e5cd37aa56e88e6be92368a819060200160405180910390a150565b5f60208284031215610196575f5ffd5b5035919050565b634e487b7160e01b5f52601160045260245ffd5b5f600182016101c2576101c261019d565b5060010190565b808201808211156101dc576101dc61019d565b9291505056fea2646970667358221220f420a2be519559275ebd5390c2dee010b44ddc1307f2401030955e8b2bf2f0e064736f6c634300081c0033",
  "linkReferences": {},
  "deployedLinkReferences": {},
  "immutableReferences": {},
  "inputSourceName": "project/contracts/Counter.sol",
  "buildInfoId": "solc-0_8_28-f9892a2d341a1c3b23026d89204ab66616f0aa66"
}