{
  "_format": "hh3-artifact-1",
  "contractName": "Counter",
  "sourceName": "contracts/Counter.sol",
  "abi": [
    {
      "anonymous": false,
      "inputs": [
        {
          "indexed": false,
          "internalType": "uint256",
          "name": "by",
          "type": "uint256"
        }
      ],
      "name": "Increment",
      "type": "event"
    },
    {
      "inputs": [],
      "name": "inc",
      "outputs": [],
      "stateMutability": "nonpayable",
      "type": "function"
    },
    {
      "inputs": [
        {
          "internalType": "uint256",
          "name": "by1",
          "type": "uint256"
        }
      ],
      "name": "incBy",
      "outputs": [],
      "stateMutability": "nonpayable",
      "type": "function"
    },
    {
      "inputs": [],
      "name": "x",
      "outputs": [
        {
          "internalType": "uint256",
          "name": "",
          "type": "uint256"
        }
      ],
      "stateMutability": "view",
      "type": "function"
    }
  ],
  "bytecode": "0x6080604052348015600e575f5ffd5b5061020d8061001c5f395ff3fe608060405234801561000f575f5ffd5b506004361061003f575f3560e01c80630c55699c14610043578063371303c01461005d57806370119d0614610067575b5f5ffd5b61004b5f5481565b60405190815260200160405180910390f35b61006561007a565b005b61006561007536600461017b565b6100c3565b5f80549080610088836101a6565b9091555050604051600181527f51af157c2eee40f68107a47a49c32fbbeb0a3c9e5cd37aa56e88e6be92368a819060200160405180910390a1565b5f81116101305760405162461bcd60e51b815260206004820152603160248201527f696e634279313a203231323231696e6372656d656e742073686f756c6420626560448201527020706f733131313169746976653131313160781b606482015260840160405180910390fd5b805f5f82825461014091906101be565b90915550506040518181527f51af157c2eee40f68107a47a49c32fbbeb0a3c9e5cd37aa56e88e6be92368a819060200160405180910390a150565b5f6020828403121561018b575f5ffd5b5035919050565b634e487b7160e01b5f52601160045260245ffd5b5f600182016101b7576101b7610192565b5060010190565b808201808211156101d1576101d1610192565b9291505056fea2646970667358221220198ab31f919eb31721540f23f4372d9cce431593d24e98dfc4ff3145d0a8e0c164736f6c634300081c0033",
  "linkReferences": {},
  "deployedLinkReferences": {},
  "immutableReferences": {},
  "inputSourceName": "project/contracts/Counter.sol",
  "buildInfoId": "solc-0_8_28-73bfe4d8fe0894ca57147b84fffe9bf526483974"
}